:100000000C9434000C94A9000C94A9000C94A90041
:100010000C94A9000C94A9000C94A9000C94A900BC
:100020000C94A9000C94A9000C94A9000C94A900AC
:100030000C94A9000C94A9000C94A9000C94A9009C
:100040000C94A9000C94A9000C94A9000C94A9008C
:100050000C94A9000C94A9000C94A9000C94A9007C
:100060000C94A9000C94A90011241FBECFEFD8E076
:10007000DEBFCDBF0E946E000C943E00F894FFCF0F
:1000800095B1906295B920E030E021C0211531058D
:1000900081F495B1907F95B995B1482F42954F70F5
:1000A000942B95B995B1906195B995B19F7E95B90D
:1000B0000CC095B1907F95B995B1982B95B995B134
:1000C000906195B995B19F7E95B92F5F3F4F2230D2
:0C00D0003105E4F285B18F7D85B90895FB
:1000DC008FEF84B987B980EF85B98FEA88B90E9410
:1000EC0091000E949B000E94A20085E30E944000A8
:0600FC0080E090E0089591
:1001020095B1907F95B995B1892B85B985B18F7DD0
:1001120085B985B1806185B985B18F7E85B908952C
:1001220082E00E94810082E00E94810088E00E94B9
:0401320081000895AB
:0E01360080E00E9481008CE00E94810008950C
:0E01440080E00E9481008FE00E9481000895FB
:040152000C94000009
:00000001FF
