:100000000C9434000C9465030C9465030C94650304
:100010000C9465030C9465030C9465030C946503C0
:100020000C9465030C9465030C9465030C946503B0
:100030000C9465030C9465030C9465030C946503A0
:100040000C9465030C9465030C9465030C94650390
:100050000C9465030C9465030C9465030C94650380
:100060000C9465030C94650311241FBECFEFD8E0F8
:10007000DEBFCDBF0E941F030C943E00F894FFCF5B
:100080008230910509F48BC01CF4019749F0089562
:100090008330910509F405C1049709F481C10895DD
:1000A00085E80E94F10281E40E94C30286E80E9472
:1000B000F1028DE40E94C30287E80E94F10281E010
:1000C0000E94C30289E80E94F10286E40E94C302F2
:1000D0008AE80E94F1028AE30E94C3028DE80E942E
:1000E000F10280EB0E94C3028CE80E94F10280EBD7
:1000F0000E94C3028BE80E94F10280EB0E94C302BF
:100100008EE80E94F10288E40E94C3028FE80E94F8
:10011000F1028AE70E94C30285EC0E94F10280EBA3
:100120000E94C30286EC0E94F10280EB0E94C3028F
:1001300087EC0E94F10280EB0E94C30288EC0E94CF
:10014000F10281E00E94C30289EC0E94F10281E089
:100150000E94C3028AEC0E94F10281E00E94C30265
:100160008BEC0E94F10281E00E94C3028CEC0E94A1
:10017000F10281E00E94C3028DEC0E94F10281E055
:100180000E94C3028EEC0E94F10281E00E94C30231
:100190008FEC0E94F10281E00E94C302089585E87D
:1001A0000E94F10286E40E94C30286E80E94F102E6
:1001B0008DE40E94C30287E80E94F10281E00E9460
:1001C000C30289E80E94F10289E80E94F10286E4F4
:1001D0000E94C3028AE80E94F1028AE30E94C302DD
:1001E0008DE80E94F10280EB0E94C3028CE80E941D
:1001F000F10280EB0E94C3028BE80E94F10280EBC7
:100200000E94C3028EE80E94F10288E40E94C302A9
:100210008FE80E94F1028AE70E94C30285EC0E94E7
:10022000F10280EB0E94C30286EC0E94F10280EB97
:100230000E94C30287EC0E94F10280EB0E94C3027D
:1002400088EC0E94F10281E00E94C30289EC0E94C6
:10025000F10281E00E94C3028AEC0E94F10281E077
:100260000E94C3028BEC0E94F10281E00E94C30253
:100270008CEC0E94F10281E00E94C3028DEC0E948E
:10028000F10281E00E94C3028EEC0E94F10281E043
:100290000E94C3028FEC0E94F10281E00E94C3021F
:1002A000089585E80E94F10281E40E94C30286E875
:1002B0000E94F10283E50E94C30287E80E94F102D6
:1002C0008BE40E94C30289E80E94F10284E50E9447
:1002D000C3028AE80E94F1028AE30E94C3028DE809
:1002E0000E94F10280EB0E94C3028CE80E94F1029E
:1002F00080EB0E94C3028BE80E94F10280EB0E9417
:10030000C3028EE80E94F10282E60E94C3028FE8D7
:100310000E94F10283E70E94C30285EC0E94F10271
:1003200080EB0E94C30286EC0E94F10280EB0E94E7
:10033000C30287EC0E94F1028EE20E94C30288ECA5
:100340000E94F10280EB0E94C30289EC0E94F1023C
:1003500080EB0E94C3028AEC0E94F1028EE20E94AE
:10036000C3028BEC0E94F10280EB0E94C3028CEC72
:100370000E94F10280EB0E94C3028DEC0E94F10208
:100380008EE20E94C3028EEC0E94F10280EB0E947A
:10039000C3028FEC0E94F10280EB0E94C302089519
:1003A00085E80E94F10286E40E94C30286E80E946A
:1003B000F10283E50E94C30287E80E94F1028BE408
:1003C0000E94C30289E80E94F10284E50E94C302F0
:1003D0008AE80E94F1028AE30E94C3028DE80E942B
:1003E000F10280EB0E94C3028CE80E94F10280EBD4
:1003F0000E94C3028BE80E94F10280EB0E94C302BC
:100400008EE80E94F10282E60E94C3028FE80E94F9
:10041000F10283E70E94C30285EC0E94F10280EBA7
:100420000E94C30286EC0E94F10280EB0E94C3028C
:1004300087EC0E94F1028EE20E94C30288EC0E94C7
:10044000F10280EB0E94C30289EC0E94F10280EB72
:100450000E94C3028AEC0E94F1028EE20E94C30253
:100460008BEC0E94F10280EB0E94C3028CEC0E9494
:10047000F10280EB0E94C3028DEC0E94F1028EE239
:100480000E94C3028EEC0E94F10280EB0E94C30224
:0E0490008FEC0E94F10280EB0E94C3020895DF
:10049E0085EC0E94F10283E40E94C30286EC0E9466
:1004AE00F10281E40E94C30287EC0E94F1028CE407
:1004BE000E94C30288EC0E94F10283E40E94C302F0
:1004CE0089EC0E94F10285E50E94C3028AEC0E942B
:1004DE00F1028CE40E94C3028BEC0E94F10281E4D3
:1004EE000E94C3028CEC0E94F1028DE40E94C302B2
:1004FE008DEC0E94F10284E40E94C3028EEC0E94F5
:10050E00F1028FE40E94C3028FEC0E94F10281E09F
:06051E000E94C3020895D3
:1005240080E80E94F1028DE40E94C30281E80E94E7
:10053400F1028FE60E94C30282E80E94F10284E67F
:100544000E94C30283E80E94F1028AE30E94C3026C
:1005540080EC0E94F1028DE40E94C30281EC0E94AF
:10056400F10283E70E94C30282EC0E94F10287E653
:100574000E94C30283EC0E94F1028AE30E94C30238
:020584000895D8
:1005860095B1906295B920E030E021C02115310582
:1005960081F495B1907F95B995B1482F42954F70EA
:1005A600942B95B995B1906195B995B19F7E95B902
:1005B6000CC095B1907F95B995B1982B95B995B129
:1005C600906195B995B19F7E95B92F5F3F4F2230C7
:0C05D6003105E4F285B18F7D85B90895F0
:1005E20095B19F7D95B920E030E021C021153105FC
:1005F20081F495B1907F95B995B1482F42954F708E
:10060200942B95B995B1906195B995B19F7E95B9A5
:100612000CC095B1907F95B995B1982B95B995B1CC
:10062200906195B995B19F7E95B92F5F3F4F22306A
:0C0632003105E4F285B18F7D85B9089593
:10063E008FEF84B987B980EF85B98FEA88B90E94A8
:10064E004D030E9457030E945E030E9492020E9475
:10065E004F02C0E0D0E002C0C0E0D0E02196CE0153
:0C066E000E944000C430D105C9F7F6CF4F
:10067A0095B1907F95B995B1892B85B985B18F7D53
:10068A0085B985B1806185B985B18F7E85B90895AF
:10069A0082E00E943D0382E00E943D0388E00E94BE
:0406AA003D0308956F
:0E06AE0080E00E943D038CE00E943D03089511
:0E06BC0080E00E943D038FE00E943D03089500
:0406CA000C9400008C
:00000001FF
