:100000000C9434000C9443010C9443010C94430170
:100010000C9443010C9443010C9443010C94430150
:100020000C9443010C9443010C9443010C94430140
:100030000C9443010C9443010C9443010C94430130
:100040000C9443010C9443010C9443010C94430120
:100050000C9443010C9443010C9443010C94430110
:100060000C9443010C94430111241FBECFEFD8E040
:10007000DEBFCDBF0E9410010C943E00F894FFCF6C
:1000800085EC0E94E20083E40E94B40086EC0E94AA
:10009000E20081E40E94B40087EC0E94E2008CE45C
:1000A0000E94B40088EC0E94E20083E40E94B40045
:1000B00089EC0E94E20085E50E94B4008AEC0E946F
:1000C000E2008CE40E94B4008BEC0E94E20081E428
:1000D0000E94B4008CEC0E94E2008DE40E94B40007
:1000E0008DEC0E94E20084E40E94B4008EEC0E9439
:1000F000E2008FE40E94B4008FEC0E94E20081E0F5
:060100000E94B400089506
:1001060080E80E94E2008DE40E94B40081E80E942B
:10011600E2008FE60E94B40082E80E94E20084E6D4
:100126000E94B40083E80E94E2008AE30E94B400C1
:1001360080EC0E94E2008DE40E94B40081EC0E94F3
:10014600E20083E70E94B40082EC0E94E20087E6A8
:100156000E94B40083EC0E94E2008AE30E94B4008D
:020166000895FA
:1001680095B1906295B920E030E021C021153105A4
:1001780081F495B1907F95B995B1482F42954F700C
:10018800942B95B995B1906195B995B19F7E95B924
:100198000CC095B1907F95B995B1982B95B995B14B
:1001A800906195B995B19F7E95B92F5F3F4F2230E9
:0C01B8003105E4F285B18F7D85B9089512
:1001C40095B19F7D95B920E030E021C0211531051E
:1001D40081F495B1907F95B995B1482F42954F70B0
:1001E400942B95B995B1906195B995B19F7E95B9C8
:1001F4000CC095B1907F95B995B1982B95B995B1EF
:10020400906195B995B19F7E95B92F5F3F4F22308C
:0C0214003105E4F285B18F7D85B90895B5
:100220008FEF84B987B980EF85B98FEA88B90E94CA
:1002300032010E943C010E9483000E94400080E045
:0402400090E00895AD
:1002440095B1907F95B995B1892B85B985B18F7D8D
:1002540085B985B1806185B985B18F7E85B90895E9
:1002640082E00E94220182E00E94220188E00E9432
:0402740022010895C6
:0E02780080E00E9422018CE00E942201089585
:040286000C940000D4
:00000001FF
