:100000000C9437000C9486030C9486030C9486039E
:100010000C9486030C9486030C9486030C9486033C
:100020000C9486030C9486030C9486030C9486032C
:100030000C9486030C9486030C9486030C9486031C
:100040000C9486030C9486030C9486030C9486030C
:100050000C9486030C943C030C9486030C94860346
:100060000C9486030C948603010001028000112485
:100070001FBECFEFD8E0DEBFCDBFE8E6F0E040E046
:1000800017C0B591A59135912591059107FD0CC03B
:1000900095918591EF01F92FE82F05900D92A21708
:1000A000B307D9F7FE0104C01D92A217B307E1F709
:1000B000ED36F40731F70E9425030C945F00F894A5
:0200C000FFCF70
:1000C2008230910509F48BC01CF4019749F0089520
:1000D2008330910509F405C1049709F481C108959B
:1000E20085E80E94CF0281E40E94A10286E80E9474
:1000F200CF028DE40E94A10287E80E94CF0281E034
:100102000E94A10289E80E94CF0286E40E94A10215
:100112008AE80E94CF028AE30E94A1028DE80E942F
:10012200CF0280EB0E94A1028CE80E94CF0280EBFA
:100132000E94A1028BE80E94CF0280EB0E94A102E2
:100142008EE80E94CF0288E40E94A1028FE80E94FA
:10015200CF028AE70E94A10285EC0E94CF0280EBC7
:100162000E94A10286EC0E94CF0280EB0E94A102B3
:1001720087EC0E94CF0280EB0E94A10288EC0E94D1
:10018200CF0281E00E94A10289EC0E94CF0281E0AD
:100192000E94A1028AEC0E94CF0281E00E94A10289
:1001A2008BEC0E94CF0281E00E94A1028CEC0E94A3
:1001B200CF0281E00E94A1028DEC0E94CF0281E079
:1001C2000E94A1028EEC0E94CF0281E00E94A10255
:1001D2008FEC0E94CF0281E00E94A102089585E87F
:1001E2000E94CF0286E40E94A10286E80E94CF020A
:1001F2008DE40E94A10287E80E94CF0281E00E9462
:10020200A10289E80E94CF0289E80E94CF0286E417
:100212000E94A1028AE80E94CF028AE30E94A10200
:100222008DE80E94CF0280EB0E94A1028CE80E941E
:10023200CF0280EB0E94A1028BE80E94CF0280EBEA
:100242000E94A1028EE80E94CF0288E40E94A102CD
:100252008FE80E94CF028AE70E94A10285EC0E94E9
:10026200CF0280EB0E94A10286EC0E94CF0280EBBB
:100272000E94A10287EC0E94CF0280EB0E94A102A1
:1002820088EC0E94CF0281E00E94A10289EC0E94C8
:10029200CF0281E00E94A1028AEC0E94CF0281E09B
:1002A2000E94A1028BEC0E94CF0281E00E94A10277
:1002B2008CEC0E94CF0281E00E94A1028DEC0E9490
:1002C200CF0281E00E94A1028EEC0E94CF0281E067
:1002D2000E94A1028FEC0E94CF0281E00E94A10243
:1002E200089585E80E94CF0281E40E94A10286E877
:1002F2000E94CF0283E50E94A10287E80E94CF02FA
:100302008BE40E94A10289E80E94CF0284E50E9448
:10031200A1028AE80E94CF028AE30E94A1028DE82C
:100322000E94CF0280EB0E94A1028CE80E94CF02C1
:1003320080EB0E94A1028BE80E94CF0280EB0E9418
:10034200A1028EE80E94CF0282E60E94A1028FE8FB
:100352000E94CF0283E70E94A10285EC0E94CF0295
:1003620080EB0E94A10286EC0E94CF0280EB0E94E9
:10037200A10287EC0E94CF028EE20E94A10288ECC9
:100382000E94CF0280EB0E94A10289EC0E94CF0260
:1003920080EB0E94A1028AEC0E94CF028EE20E94B0
:1003A200A1028BEC0E94CF0280EB0E94A1028CEC96
:1003B2000E94CF0280EB0E94A1028DEC0E94CF022C
:1003C2008EE20E94A1028EEC0E94CF0280EB0E947C
:1003D200A1028FEC0E94CF0280EB0E94A10208953D
:1003E20085E80E94CF0286E40E94A10286E80E946C
:1003F200CF0283E50E94A10287E80E94CF028BE42C
:100402000E94A10289E80E94CF0284E50E94A10213
:100412008AE80E94CF028AE30E94A1028DE80E942C
:10042200CF0280EB0E94A1028CE80E94CF0280EBF7
:100432000E94A1028BE80E94CF0280EB0E94A102DF
:100442008EE80E94CF0282E60E94A1028FE80E94FB
:10045200CF0283E70E94A10285EC0E94CF0280EBCB
:100462000E94A10286EC0E94CF0280EB0E94A102B0
:1004720087EC0E94CF028EE20E94A10288EC0E94C9
:10048200CF0280EB0E94A10289EC0E94CF0280EB96
:100492000E94A1028AEC0E94CF028EE20E94A10277
:1004A2008BEC0E94CF0280EB0E94A1028CEC0E9496
:1004B200CF0280EB0E94A1028DEC0E94CF028EE25D
:1004C2000E94A1028EEC0E94CF0280EB0E94A10248
:0E04D2008FEC0E94CF0280EB0E94A1020895E1
:1004E00080E80E94CF028DE40E94A10281E80E9470
:1004F000CF028FE60E94A10282E80E94CF0284E62A
:100500000E94A10283E80E94CF028AE30E94A10216
:1005100080EC0E94CF028DE40E94A10281EC0E9437
:10052000CF0283E70E94A10282EC0E94CF0287E6FD
:100530000E94A10283EC0E94CF028AE30E94A102E2
:0205400008951C
:1005420095B1906295B920E030E021C021153105C6
:1005520081F495B1907F95B995B1482F42954F702E
:10056200942B95B995B1906195B995B19F7E95B946
:100572000CC095B1907F95B995B1982B95B995B16D
:10058200906195B995B19F7E95B92F5F3F4F22300B
:0C0592003105E4F285B18F7D85B9089534
:10059E0095B19F7D95B920E030E021C02115310540
:1005AE0081F495B1907F95B995B1482F42954F70D2
:1005BE00942B95B995B1906195B995B19F7E95B9EA
:1005CE000CC095B1907F95B995B1982B95B995B111
:1005DE00906195B995B19F7E95B92F5F3F4F2230AF
:0C05EE003105E4F285B18F7D85B90895D8
:1005FA008F3F910509F028F481E090E00E946100A4
:10060A0008959C013A952F3F310528F482E090E045
:10061A000E94610008959C012F5F31402F3F3105F0
:10062A0028F483E090E00E94610008958E5F924072
:10063A008230914020F484E090E00E9461000895A5
:10064A008FEF84B917B88EEF88B90E9462030E94AF
:10065A006E030E9478030E947F030E9470027894BE
:0E066A0080910001909101010E94FD02F9CFE4
:100678001F920F920FB60F9211248F939F93809120
:1006880078009091790090930101809300019F91E7
:0C0698008F910F900FBE0F901F901895CF
:1006A40095B1907F95B995B1892B85B985B18F7D29
:1006B40085B985B1806185B985B18F7E85B9089585
:1006C4008FEE80937A0010927B0080E480937C000C
:0806D4008EE380937E0008957F
:1006DC0082E00E94520382E00E94520388E00E9452
:0406EC005203089518
:0E06F00080E00E9452038CE00E9452030895A5
:0E06FE0080E00E9452038FE00E945203089594
:04070C000C94000049
:00000001FF
