:100000000C9434000C949D000C949D000C949D0065
:100010000C949D000C949D000C949D000C949D00EC
:100020000C949D000C949D000C949D000C949D00DC
:100030000C949D000C949D000C949D000C949D00CC
:100040000C949D000C949D000C949D000C949D00BC
:100050000C949D000C949D000C949D000C949D00AC
:100060000C949D000C949D0011241FBECFEFD8E08E
:10007000DEBFCDBF0E9440000C943E00F894FFCF3D
:100080008FEF84B987B985B98FEA88B90E94850056
:100090000E948F000E9496008FE80E94750085E301
:0A00A0000E94650080E090E00895E2
:1000AA0095B1907F95B995B1892B85B985B18F7D29
:1000BA0085B985B1806185B985B18F7E85B9089585
:1000CA0095B1906295B995B1907F95B995B1982BF4
:1000DA0095B995B1906195B995B19F7E95B9F3CFD0
:1000EA0095B19F7D95B995B1907F95B995B1982BAA
:1000FA0095B995B1906195B995B19F7E95B9F3CFB0
:10010A0082E00E94550082E00E94550088E00E9429
:04011A0055000895EF
:0E011E0080E00E9455008CE00E94550008957C
:0E012C0080E00E9455008FE00E94550008956B
:04013A000C94000021
:00000001FF
