:100000000C9434000C9420030C9420030C942003D3
:100010000C9420030C9420030C9420030C942003D4
:100020000C9420030C9420030C9420030C942003C4
:100030000C9420030C9420030C9420030C942003B4
:100040000C9420030C9420030C9420030C942003A4
:100050000C9420030C9420030C9420030C94200394
:100060000C9420030C94200311241FBECFEFD8E082
:10007000DEBFCDBF0E94DC020C943E00F894FFCF9F
:100080008230910509F48BC01CF4019749F0089562
:100090008330910509F405C1049709F481C10895DD
:1000A00085E80E94AE0281E40E94800286E80E94F8
:1000B000AE028DE40E94800287E80E94AE0281E0D9
:1000C0000E94800289E80E94AE0286E40E948002BB
:1000D0008AE80E94AE028AE30E9480028DE80E94B4
:1000E000AE0280EB0E9480028CE80E94AE0280EBA0
:1000F0000E9480028BE80E94AE0280EB0E94800288
:100100008EE80E94AE0288E40E9480028FE80E947E
:10011000AE028AE70E94800285EC0E94AE0280EB6C
:100120000E94800286EC0E94AE0280EB0E94800258
:1001300087EC0E94AE0280EB0E94800288EC0E9455
:10014000AE0281E00E94800289EC0E94AE0281E052
:100150000E9480028AEC0E94AE0281E00E9480022E
:100160008BEC0E94AE0281E00E9480028CEC0E9427
:10017000AE0281E00E9480028DEC0E94AE0281E01E
:100180000E9480028EEC0E94AE0281E00E948002FA
:100190008FEC0E94AE0281E00E948002089585E803
:1001A0000E94AE0286E40E94800286E80E94AE02AF
:1001B0008DE40E94800287E80E94AE0281E00E94E6
:1001C000800289E80E94AE0289E80E94AE0286E4BD
:1001D0000E9480028AE80E94AE028AE30E948002A6
:1001E0008DE80E94AE0280EB0E9480028CE80E94A3
:1001F000AE0280EB0E9480028BE80E94AE0280EB90
:100200000E9480028EE80E94AE0288E40E94800272
:100210008FE80E94AE028AE70E94800285EC0E946D
:10022000AE0280EB0E94800286EC0E94AE0280EB60
:100230000E94800287EC0E94AE0280EB0E94800246
:1002400088EC0E94AE0281E00E94800289EC0E944C
:10025000AE0281E00E9480028AEC0E94AE0281E040
:100260000E9480028BEC0E94AE0281E00E9480021C
:100270008CEC0E94AE0281E00E9480028DEC0E9414
:10028000AE0281E00E9480028EEC0E94AE0281E00C
:100290000E9480028FEC0E94AE0281E00E948002E8
:1002A000089585E80E94AE0281E40E94800286E8FB
:1002B0000E94AE0283E50E94800287E80E94AE029F
:1002C0008BE40E94800289E80E94AE0284E50E94CD
:1002D00080028AE80E94AE028AE30E9480028DE8D2
:1002E0000E94AE0280EB0E9480028CE80E94AE0267
:1002F00080EB0E9480028BE80E94AE0280EB0E949D
:1003000080028EE80E94AE0282E60E9480028FE8A0
:100310000E94AE0283E70E94800285EC0E94AE023A
:1003200080EB0E94800286EC0E94AE0280EB0E946D
:10033000800287EC0E94AE028EE20E94800288EC6E
:100340000E94AE0280EB0E94800289EC0E94AE0205
:1003500080EB0E9480028AEC0E94AE028EE20E9434
:1003600080028BEC0E94AE0280EB0E9480028CEC3B
:100370000E94AE0280EB0E9480028DEC0E94AE02D1
:100380008EE20E9480028EEC0E94AE0280EB0E9400
:1003900080028FEC0E94AE0280EB0E9480020895E2
:1003A00085E80E94AE0286E40E94800286E80E94F0
:1003B000AE0283E50E94800287E80E94AE028BE4D1
:1003C0000E94800289E80E94AE0284E50E948002B9
:1003D0008AE80E94AE028AE30E9480028DE80E94B1
:1003E000AE0280EB0E9480028CE80E94AE0280EB9D
:1003F0000E9480028BE80E94AE0280EB0E94800285
:100400008EE80E94AE0282E60E9480028FE80E947F
:10041000AE0283E70E94800285EC0E94AE0280EB70
:100420000E94800286EC0E94AE0280EB0E94800255
:1004300087EC0E94AE028EE20E94800288EC0E944D
:10044000AE0280EB0E94800289EC0E94AE0280EB3B
:100450000E9480028AEC0E94AE028EE20E9480021C
:100460008BEC0E94AE0280EB0E9480028CEC0E941A
:10047000AE0280EB0E9480028DEC0E94AE028EE202
:100480000E9480028EEC0E94AE0280EB0E948002ED
:0E0490008FEC0E94AE0280EB0E948002089565
:10049E0080E80E94AE028DE40E94800281E80E94F4
:1004AE00AE028FE60E94800282E80E94AE0284E6CF
:1004BE000E94800283E80E94AE028AE30E948002BC
:1004CE0080EC0E94AE028DE40E94800281EC0E94BC
:1004DE00AE0283E70E94800282EC0E94AE0287E6A3
:1004EE000E94800283EC0E94AE028AE30E94800288
:0204FE0008955F
:1005000095B1906295B920E030E021C02115310508
:1005100081F495B1907F95B995B1482F42954F7070
:10052000942B95B995B1906195B995B19F7E95B988
:100530000CC095B1907F95B995B1982B95B995B1AF
:10054000906195B995B19F7E95B92F5F3F4F22304D
:0C0550003105E4F285B18F7D85B9089576
:10055C0095B19F7D95B920E030E021C02115310582
:10056C0081F495B1907F95B995B1482F42954F7014
:10057C00942B95B995B1906195B995B19F7E95B92C
:10058C000CC095B1907F95B995B1982B95B995B153
:10059C00906195B995B19F7E95B92F5F3F4F2230F1
:0C05AC003105E4F285B18F7D85B908951A
:1005B8008FEF84B987B980EF85B98FEA88B90E942F
:1005C80008030E9412030E9419030E944F02C0E010
:1005D800D0E002C0C0E0D0E02196CE010E944000E9
:0805E800C430D105C9F7F6CFBC
:1005F00095B1907F95B995B1892B85B985B18F7DDE
:1006000085B985B1806185B985B18F7E85B9089539
:1006100082E00E94F80282E00E94F80288E00E94D4
:04062000F80208953F
:0E06240080E00E94F8028CE00E94F802089527
:0E06320080E00E94F8028FE00E94F802089516
:040640000C94000016
:00000001FF
