:100000000C9434000C94AD000C94AD000C94AD0035
:100010000C94AD000C94AD000C94AD000C94AD00AC
:100020000C94AD000C94AD000C94AD000C94AD009C
:100030000C94AD000C94AD000C94AD000C94AD008C
:100040000C94AD000C94AD000C94AD000C94AD007C
:100050000C94AD000C94AD000C94AD000C94AD006C
:100060000C94AD000C94AD0011241FBECFEFD8E06E
:10007000DEBFCDBF0E9473000C943E00F894FFCF0A
:1000800095B1906295B920E030E00EC095B1907FB7
:1000900095B995B1982B95B995B1906195B995B1F0
:1000A0009F7E95B92F5F3F4F223031057CF385B19C
:0600B0008F7D85B9089563
:1000B60095B19F7D95B920E030E00EC095B1907F57
:1000C60095B995B1982B95B995B1906195B995B1BA
:1000D6009F7E95B92F5F3F4F223031057CF30895FF
:1000E6008FEF84B987B985B98FEA88B90E949800DD
:1000F6000E949F000E94A6008FE80E945B0085E395
:0A0106000E94400080E090E00895A0
:1001100095B1907F95B995B1892B85B985B18F7DC2
:1001200085B985B1806185B985B18F7E85B908951E
:0E01300082E00E94880088E00E948800089506
:0E013E0080E00E9488008CE00E9488000895F6
:0E014C0080E00E9488008FE00E9488000895E5
:04015A000C94000001
:00000001FF
