:100000000C9434000C94CF010C94CF010C94CF01CC
:100010000C94CF010C94CF010C94CF010C94CF0120
:100020000C94CF010C94CF010C94CF010C94CF0110
:100030000C94CF010C94CF010C94CF010C94CF0100
:100040000C94CF010C94CF010C94CF010C94CF01F0
:100050000C94CF010C94CF010C94CF010C94CF01E0
:100060000C94CF010C94CF0111241FBECFEFD8E028
:10007000DEBFCDBF0E948B010C943E00F894FFCFF1
:1000800082309105B9F11CF4019749F0089583304D
:10009000910509F45DC0049709F485C0089585E8C9
:1000A0000E945D018DE40E942F0186E80E945D019F
:1000B0008DE40E942F0187E80E945D0181E00E948B
:1000C0002F0189E80E945D0186E40E942F018AE8E1
:1000D0000E945D018AE30E942F018EE80E945D016B
:1000E00088E40E942F018FE80E945D018AE70E9448
:1000F0002F01089585E80E945D0186E40E942F018A
:1001000086E80E945D018DE40E942F0187E80E942D
:100110005D0181E00E942F0189E80E945D0189E86C
:100120000E945D0186E40E942F018AE80E945D0121
:100130008AE30E942F018EE80E945D0188E40E94FC
:100140002F018FE80E945D018AE70E942F01089528
:1001500085E80E945D0181E40E942F0186E80E94EB
:100160005D0183E50E942F0187E80E945D018BE419
:100170000E942F0189E80E945D0184E50E942F0101
:100180008AE80E945D018AE30E942F018EE80E94A6
:100190005D0182E60E942F018FE80E945D0189E3E4
:1001A0000E942F01089585E80E945D0186E40E9467
:1001B0002F0186E80E945D0183E50E942F0187E8F8
:1001C0000E945D018BE40E942F0189E80E945D017D
:1001D00084E50E942F018AE80E945D018AE30E9463
:1001E0002F018EE80E945D0182E60E942F018FE8B8
:0C01F0000E945D0189E30E942F01089528
:1001FC0080E80E945D018DE40E942F0181E80E943D
:10020C005D018FE60E942F0182E80E945D0184E669
:10021C000E942F0183E80E945D018AE30E942F0156
:10022C0080EC0E945D018DE40E942F0181EC0E9404
:10023C005D0183E70E942F0182EC0E945D0187E63D
:10024C000E942F0183EC0E945D018AE30E942F0122
:02025C00089503
:10025E0095B1906295B920E030E021C021153105AD
:10026E0081F495B1907F95B995B1482F42954F7015
:10027E00942B95B995B1906195B995B19F7E95B92D
:10028E000CC095B1907F95B995B1982B95B995B154
:10029E00906195B995B19F7E95B92F5F3F4F2230F2
:0C02AE003105E4F285B18F7D85B908951B
:1002BA0095B19F7D95B920E030E021C02115310527
:1002CA0081F495B1907F95B995B1482F42954F70B9
:1002DA00942B95B995B1906195B995B19F7E95B9D1
:1002EA000CC095B1907F95B995B1982B95B995B1F8
:1002FA00906195B995B19F7E95B92F5F3F4F223096
:0C030A003105E4F285B18F7D85B90895BE
:100316008FEF84B987B980EF85B98FEA88B90E94D3
:10032600B7010E94C1010E94C8010E94FE00C0E000
:10033600D0E002C0C0E0D0E02196CE010E9440008D
:08034600C430D105C9F7F6CF60
:10034E0095B1907F95B995B1892B85B985B18F7D82
:10035E0085B985B1806185B985B18F7E85B90895DE
:10036E0082E00E94A70182E00E94A70188E00E941D
:04037E00A701089536
:0E03820080E00E94A7018CE00E94A701089570
:0E03900080E00E94A7018FE00E94A70108955F
:04039E000C940000BB
:00000001FF
