:100000000C9434000C9414010C9414010C941401FD
:100010000C9414010C9414010C9414010C9414010C
:100020000C9414010C9414010C9414010C941401FC
:100030000C9414010C9414010C9414010C941401EC
:100040000C9414010C9414010C9414010C941401DC
:100050000C9414010C9414010C9414010C941401CC
:100060000C9414010C94140111241FBECFEFD8E09E
:10007000DEBFCDBF0E94E0000C943E00F894FFCF9D
:1000800095B1906295B920E030E021C0211531058D
:1000900081F495B1907F95B995B1482F42954F70F5
:1000A000942B95B995B1906195B995B19F7E95B90D
:1000B0000CC095B1907F95B995B1982B95B995B134
:1000C000906195B995B19F7E95B92F5F3F4F2230D2
:0C00D0003105E4F285B18F7D85B90895FB
:1000DC0095B19F7D95B920E030E021C02115310507
:1000EC0081F495B1907F95B995B1482F42954F7099
:1000FC00942B95B995B1906195B995B19F7E95B9B1
:10010C000CC095B1907F95B995B1982B95B995B1D7
:10011C00906195B995B19F7E95B92F5F3F4F223075
:0C012C003105E4F285B18F7D85B908959E
:1001380085EC0E946E0083E40E94400081E40E94E6
:1001480040008CE40E94400083E40E94400085E562
:100158000E9440008CE40E94400081E40E9440001C
:100168008EE40E94400084E40E9440008FE40E94D4
:0A017800400081E00E94400008955D
:1001820080E80E946E008DE40E9440008FE60E948B
:10019200400084E60E9440008AE30E94400080EC16
:1001A2000E946E008DE40E94400083E70E9440009E
:0E01B20087E60E9440008AE30E944000089504
:1001C0008FEF84B987B980EF85B98FEA88B90E942B
:1001D00003010E940D010E94C1000E949C0080E06A
:0401E00090E008950E
:1001E40095B1907F95B98F7095B1892B85B985B1FB
:1001F4008F7D85B985B1806185B985B18F7E85B9DB
:0202040008955B
:1002060082E00E94F20082E00E94F20088E00E94F2
:04021600F200089555
:0E021A0080E00E94F2008CE00E94F200089545
:040228000C94000032
:00000001FF
