:100000000C9434000C947A000C947A000C947A00CE
:100010000C947A000C947A000C947A000C947A0078
:100020000C947A000C947A000C947A000C947A0068
:100030000C947A000C947A000C947A000C947A0058
:100040000C947A000C947A000C947A000C947A0048
:100050000C947A000C947A000C947A000C947A0038
:100060000C947A000C947A0011241FBECFEFD8E0D4
:10007000DEBFCDBF0E9457000C943E00F894FFCF26
:1000800095B1907F95B995B1892B85B988B18C7F51
:1000900088B988B1816088B980E090E001C001969C
:0E00A0008F3F9105E4F388B18E7F88B90895F3
:1000AE008FEF84B987B988EF85B98FEA88B90E9436
:0C00BE0065000E946C000E947300FDCFE2
:0E00CA0082E00E94400088E00E9440000895FD
:0E00D80080E00E9440008CE00E9440000895ED
:0E00E60080E00E9440008FE00E9440000895DC
:0400F4000C94000068
:00000001FF
