:100000000C9434000C9407010C9407010C94070124
:100010000C9407010C9407010C9407010C94070140
:100020000C9407010C9407010C9407010C94070130
:100030000C9407010C9407010C9407010C94070120
:100040000C9407010C9407010C9407010C94070110
:100050000C9407010C9407010C9407010C94070100
:100060000C9407010C94070111241FBECFEFD8E0B8
:10007000DEBFCDBF0E94CD000C943E00F894FFCFB0
:1000800080E80E949F008DE40E94710081E80E9438
:100090009F008FE60E94710082E80E949F0084E624
:1000A0000E94710083E80E949F008AE30E94710011
:1000B00080EC0E949F008DE40E94710081EC0E9400
:1000C0009F0083E70E94710082EC0E949F0087E6F8
:1000D0000E94710083EC0E949F008AE30E947100DD
:0200E000089581
:1000E20095B1906295B920E030E021C0211531052B
:1000F20081F495B1907F95B995B1482F42954F7093
:10010200942B95B995B1906195B995B19F7E95B9AA
:100112000CC095B1907F95B995B1982B95B995B1D1
:10012200906195B995B19F7E95B92F5F3F4F22306F
:0C0132003105E4F285B18F7D85B9089598
:10013E0095B19F7D95B920E030E021C021153105A4
:10014E0081F495B1907F95B995B1482F42954F7036
:10015E00942B95B995B1906195B995B19F7E95B94E
:10016E000CC095B1907F95B995B1982B95B995B175
:10017E00906195B995B19F7E95B92F5F3F4F223013
:0C018E003105E4F285B18F7D85B908953C
:10019A008FEF84B987B980EF85B98FEA88B90E9451
:1001AA00EF000E94F9000E9400010E94400080E0D6
:0401BA0090E0089534
:1001BE0095B1907F95B995B1892B85B985B18F7D14
:1001CE0085B985B1806185B985B18F7E85B9089570
:1001DE0082E00E94DF0082E00E94DF0088E00E9441
:0401EE00DF00089591
:0E01F20080E00E94DF008CE00E94DF00089594
:0E02000080E00E94DF008FE00E94DF00089582
:04020E000C9400004C
:00000001FF
