:100000000C9434000C94C0020C94C0020C94C002F6
:100010000C94C0020C94C0020C94C0020C94C00258
:100020000C94C0020C94C0020C94C0020C94C00248
:100030000C94C0020C94C0020C94C0020C94C00238
:100040000C94C0020C94C0020C94C0020C94C00228
:100050000C94C0020C94C0020C94C0020C94C00218
:100060000C94C0020C94C00211241FBECFEFD8E044
:10007000DEBFCDBF0E947C020C943E00F894FFCFFF
:100080008230910509F45BC01CF4019749F0089592
:100090008330910509F4A5C0049709F421C108959E
:1000A00085E80E944E028DE40E94200286E80E94AC
:1000B0004E028DE40E94200287E80E944E0281E0F9
:1000C0000E94200289E80E944E0286E40E942002DB
:1000D0008AE80E944E028AE30E9420028DE80E9474
:1000E0004E0280EB0E9420028CE80E944E0280EBC0
:1000F0000E9420028BE80E944E0280EB0E942002A8
:100100008EE80E944E0288E40E9420028FE80E943E
:100110004E028AE70E94200285EC0E944E0280EB8C
:100120000E94200286EC0E944E0280EB0E94200278
:1001300087EC0E944E0280EB0E942002089585E821
:100140000E944E0286E40E94200286E80E944E022F
:100150008DE40E94200287E80E944E0281E00E9406
:10016000200289E80E944E0289E80E944E0286E43D
:100170000E9420028AE80E944E028AE30E94200226
:100180008DE80E944E0280EB0E9420028CE80E94C3
:100190004E0280EB0E9420028BE80E944E0280EB10
:1001A0000E9420028EE80E944E0288E40E942002F3
:1001B0008FE80E944E028AE70E94200285EC0E948E
:1001C0004E0280EB0E94200286EC0E944E0280EBE1
:1001D0000E94200287EC0E944E0280EB0E942002C7
:1001E000089585E80E944E0281E40E94200286E87C
:1001F0000E944E0283E50E94200287E80E944E0280
:100200008BE40E94200289E80E944E0284E50E944D
:1002100020028AE80E944E028AE30E9420028DE8B2
:100220000E944E0280EB0E9420028CE80E944E0247
:1002300080EB0E9420028BE80E944E0280EB0E941D
:1002400020028EE80E944E0282E60E9420028FE881
:100250000E944E0283E70E94200285EC0E944E021B
:1002600080EB0E94200286EC0E944E0280EB0E94EE
:10027000200287EC0E944E028EE20E94200288EC4F
:100280000E944E0280EB0E94200289EC0E944E02E6
:1002900080EB0E9420028AEC0E944E028EE20E94B5
:1002A00020028BEC0E944E0280EB0E9420028CEC1C
:1002B0000E944E0280EB0E9420028DEC0E944E02B2
:1002C0008EE20E9420028EEC0E944E0280EB0E9481
:1002D00020028FEC0E944E0280EB0E9420020895C3
:1002E00085E80E944E0286E40E94200286E80E9471
:1002F0004E0283E50E94200287E80E944E028BE4B2
:100300000E94200289E80E944E0284E50E94200299
:100310008AE80E944E028AE30E9420028DE80E9431
:100320004E0280EB0E9420028CE80E944E0280EB7D
:100330000E9420028BE80E944E0280EB0E94200265
:100340008EE80E944E0282E60E9420028FE80E9400
:100350004E0283E70E94200285EC0E944E0280EB51
:100360000E94200286EC0E944E0280EB0E94200236
:1003700087EC0E944E028EE20E94200288EC0E94CE
:100380004E0280EB0E94200289EC0E944E0280EB1C
:100390000E9420028AEC0E944E028EE20E942002FD
:1003A0008BEC0E944E0280EB0E9420028CEC0E949B
:1003B0004E0280EB0E9420028DEC0E944E028EE2E3
:1003C0000E9420028EEC0E944E0280EB0E942002CE
:0E03D0008FEC0E944E0280EB0E9420020895E6
:1003DE0080E80E944E028DE40E94200281E80E9475
:1003EE004E028FE60E94200282E80E944E0284E6B0
:1003FE000E94200283E80E944E028AE30E9420029D
:10040E0080EC0E944E028DE40E94200281EC0E943C
:10041E004E0283E70E94200282EC0E944E0287E683
:10042E000E94200283EC0E944E028AE30E94200268
:02043E0008951F
:1004400095B1906295B920E030E021C021153105C9
:1004500081F495B1907F95B995B1482F42954F7031
:10046000942B95B995B1906195B995B19F7E95B949
:100470000CC095B1907F95B995B1982B95B995B170
:10048000906195B995B19F7E95B92F5F3F4F22300E
:0C0490003105E4F285B18F7D85B9089537
:10049C0095B19F7D95B920E030E021C02115310543
:1004AC0081F495B1907F95B995B1482F42954F70D5
:1004BC00942B95B995B1906195B995B19F7E95B9ED
:1004CC000CC095B1907F95B995B1982B95B995B114
:1004DC00906195B995B19F7E95B92F5F3F4F2230B2
:0C04EC003105E4F285B18F7D85B90895DB
:1004F8008FEF84B987B980EF85B98FEA88B90E94F0
:10050800A8020E94B2020E94B9020E94EF01C0E054
:10051800D0E002C0C0E0D0E02196CE010E944000A9
:08052800C430D105C9F7F6CF7C
:1005300095B1907F95B995B1892B85B985B18F7D9E
:1005400085B985B1806185B985B18F7E85B90895FA
:1005500082E00E94980282E00E94980288E00E9455
:040560009802089560
:0E05640080E00E9498028CE00E9498020895A8
:0E05720080E00E9498028FE00E949802089597
:040580000C940000D7
:00000001FF
