:100000000C9434000C94AA000C94AA000C94AA003E
:100010000C94AA000C94AA000C94AA000C94AA00B8
:100020000C94AA000C94AA000C94AA000C94AA00A8
:100030000C94AA000C94AA000C94AA000C94AA0098
:100040000C94AA000C94AA000C94AA000C94AA0088
:100050000C94AA000C94AA000C94AA000C94AA0078
:100060000C94AA000C94AA0011241FBECFEFD8E074
:10007000DEBFCDBF0E946F000C943E00F894FFCF0E
:1000800095B1906295B920E030E022C0211531058C
:1000900089F495B19F7095B995B1982B95B995B1A3
:1000A00092959F7095B995B1906195B995B19F7EE4
:1000B00095B90CC095B1907F95B995B1982B95B92C
:1000C00095B1906195B995B19F7E95B92F5F3F4FDE
:0E00D00022303105DCF285B18F7D85B90895AF
:1000DE008FEF84B987B980EF85B98FEA88B90E940E
:1000EE0092000E949C000E94A30085E30E944000A3
:0600FE0080E090E008958F
:1001040095B1907F95B995B1892B85B985B18F7DCE
:1001140085B985B1806185B985B18F7E85B908952A
:1001240082E00E94820082E00E94820088E00E94B5
:0401340082000895A8
:0E01380080E00E9482008CE00E948200089508
:0E01460080E00E9482008FE00E9482000895F7
:040154000C94000007
:00000001FF
