:100000000C9434000C9405010C9405010C9405012A
:100010000C9405010C9405010C9405010C94050148
:100020000C9405010C9405010C9405010C94050138
:100030000C9405010C9405010C9405010C94050128
:100040000C9405010C9405010C9405010C94050118
:100050000C9405010C9405010C9405010C94050108
:100060000C9405010C94050111241FBECFEFD8E0BC
:10007000DEBFCDBF0E94DD000C943E00F894FFCFA0
:1000800080E80E949F008DE40E94710081E80E9438
:100090009F008FE60E94710082E80E949F0084E624
:1000A0000E94710083E80E949F008AE30E94710011
:1000B00080EC0E949F008DE40E94710081EC0E9400
:1000C0009F0083E70E94710082EC0E949F0087E6F8
:1000D0000E94710083EC0E949F008AE30E947100DD
:0200E000089581
:1000E20095B1906295B920E030E021C0211531052B
:1000F20081F495B1907F95B995B1482F42954F7093
:10010200942B95B995B1906195B995B19F7E95B9AA
:100112000CC095B1907F95B995B1982B95B995B1D1
:10012200906195B995B19F7E95B92F5F3F4F22306F
:0C0132003105E4F285B18F7D85B9089598
:10013E0095B19F7D95B920E030E021C021153105A4
:10014E0081F495B1907F95B995B1482F42954F7036
:10015E00942B95B995B1906195B995B19F7E95B94E
:10016E000CC095B1907F95B995B1982B95B995B175
:10017E00906195B995B19F7E95B92F5F3F4F223013
:0C018E003105E4F285B18F7D85B908953C
:10019A0095B1907F95B995B1892B85B985B18F7D38
:1001AA0085B985B1806185B985B18F7E85B9089594
:1001BA008FEF84B987B980EF85B98FEA88B90E9431
:1001CA00ED000E94F7000E94FE000E944000FFCF4F
:1001DA0082E00E94CD0082E00E94CD0088E00E9469
:0401EA00CD000895A7
:0E01EE0080E00E94CD008CE00E94CD000895BC
:0E01FC0080E00E94CD008FE00E94CD000895AB
:04020A000C94000050
:00000001FF
