:100000000C9434000C94AB000C94AB000C94AB003B
:100010000C94AB000C94AB000C94AB000C94AB00B4
:100020000C94AB000C94AB000C94AB000C94AB00A4
:100030000C94AB000C94AB000C94AB000C94AB0094
:100040000C94AB000C94AB000C94AB000C94AB0084
:100050000C94AB000C94AB000C94AB000C94AB0074
:100060000C94AB000C94AB0011241FBECFEFD8E072
:10007000DEBFCDBF0E9466000C943E00F894FFCF17
:1000800098B19C7F98B998B1926098B940E050E0DF
:1000900016C095B1907F95B995B1982B95B998B147
:1000A000936098B920E030E002C02F5F3F4F2F3FB0
:1000B0003105DCF398B19E7F98B94F5F5F4F4230B6
:0C00C00051053CF388B18D7F88B908958C
:1000CC008FEF84B987B988EF85B98FEA88B90E9418
:1000DC0096000E949D0082E00E947F0082E00E94B8
:1000EC007F000E94A4008FEA0E94400080E090E014
:0200FC00089565
:1000FE0095B1907F95B995B1892B85B988B18C7FD3
:10010E0088B988B1816088B980E090E001C001961D
:0E011E008F3F9105E4F388B18E7F88B9089574
:0E012C0082E00E947F0088E00E947F0008951C
:0E013A0080E00E947F008CE00E947F0008950C
:0E01480080E00E947F008FE00E947F000895FB
:040156000C94000005
:00000001FF
