:020000020000FC
:100000000FEF0AB9229A239A2498259A00ED0CBD85
:100010002A980FE30EBD0E94590000E00EBD0E9419
:10002000590002E00EBD0E94590002E10EBD0E947F
:10003000590001E00EBD0E94590008E00EBD0E946B
:10004000590006E00EBD0E94590001E20EBD0E945B
:10005000590000E00EBD0E9459002A9A0FEB0EBD18
:100060000E94590000E00EBD0E94590010914E0000
:1000700000E00EBD0E94590002E00EBD0E94590032
:1000800002E10EBD0E94590001E00EBD0E94590020
:1000900008E00EBD0E94590006E00EBD0E94590006
:1000A00001E20EBD0E94590000E00EBD0E94590001
:0E00B00004C00DB507FFFDCF08951BB9CFCFDB
:00000001FF
