:020000020000FC
:100000000FEF0AB9229A239A2498259A00ED0CBD85
:100010002A980FE30EBD0E94390000E00EBD0E9439
:10002000390002E00EBD0E94390002E10EBD0E94BF
:10003000390001E00EBD0E94390008E00EBD0E94AB
:10004000390006E00EBD0E94390001E20EBD0E949B
:10005000390000E00EBD0E9439002A9A2A980BE868
:100060000EBD0E943D0000270EBD0E943D002A9A51
:1000700008C00DB507FFFDCF08950DB507FFFDCFF3
:0C00800000C02A9800914E000BB9FBCF85
:00000001FF
