:020000020000FC
:100000000FEF0AB9229A239A2498259A00ED0CBD85
:100010002A980FE30EBD0E94550000E00EBD0E941D
:10002000550002E00EBD0E94550002E10EBD0E9487
:10003000550001E00EBD0E94550008E00EBD0E9473
:10004000550006E00EBD0E94550001E20EBD0E9463
:10005000550000E00EBD0E9455002A9A0FEB0EBD20
:100060000E94550000E00EBD0E94550002E00EBD4A
:100070000E94550002E10EBD0E94550001E00EBD38
:100080000E94550008E00EBD0E94550006E00EBD1E
:100090000E94550001E20EBD0E94550010914E00D5
:1000A00000E00EBD0E94550004C00DB507FFFDCF56
:0600B00008951BB9FECF0C
:00000001FF
