:020000020000FC
:100000000FEF0AB9229A239A2498259A00ED0CBD85
:100010002A980FE30EBD0E94500000E00EBD0E9422
:10002000500002E00EBD0E94500002E10EBD0E9491
:10003000500001E00EBD0E94500008E00EBD0E947D
:10004000500006E00EBD0E94500001E20EBD0E946D
:10005000500000E00EBD0E9450002A9A2A980FEB33
:100060000EBD0E94500000270EBD0E94500010914E
:100070004E000EBD0E9450000EBD0E9450000EBDED
:100080000E9450000EBD0E9450000EBD0E94500004
:100090000EBD0E9450000EBD0E9450002A9A04C05E
:1000A0000DB507FFFDCF08951BB9D8CF11E20AE0C7
:0400B0001803112DF3
:00000001FF
