:020000020000FC
:100000000FEF0AB9229A239A2498259A00ED0CBD85
:100010002A980FE30EBD0E94570000E00EBD0E941B
:10002000570002E00EBD0E94570002E10EBD0E9483
:10003000570001E00EBD0E94570008E00EBD0E946F
:10004000570006E00EBD0E94570001E20EBD0E945F
:10005000570000E00EBD0E9457002A9A0FEB0EBD1C
:100060000E94570000E00EBD0E94570000E00EBD48
:100070000E94570002E00EBD0E94570002E10EBD33
:100080000E94570001E00EBD0E94570008E00EBD1F
:100090000E94570006E00EBD0E94570001E20EBD0F
:1000A0000E94570000E00EBD0E94570004C00DB52D
:0A00B00007FFFDCF08951BB9D1CF63
:00000001FF
